{"abi":[{"type":"constructor","inputs":[],"stateMutability":"nonpayable"},{"type":"function","name":"buychai","inputs":[{"name":"name","type":"string","internalType":"string"},{"name":"message","type":"string","internalType":"string"}],"outputs":[],"stateMutability":"payable"},{"type":"function","name":"getMemos","inputs":[],"outputs":[{"name":"","type":"tuple[]","internalType":"struct Chai.Memo[]","components":[{"name":"memo","type":"string","internalType":"string"},{"name":"message","type":"string","internalType":"string"},{"name":"timestamp","type":"uint256","internalType":"uint256"},{"name":"from","type":"address","internalType":"address"}]}],"stateMutability":"view"},{"type":"error","name":"InsufficientAmount","inputs":[]}],"bytecode":{"object":"0x6080604052348015600f57600080fd5b50600180546001600160a01b03191633179055610689806100316000396000f3fe6080604052600436106100295760003560e01c8063865c51721461002e57806397aeeef714610059575b600080fd5b34801561003a57600080fd5b5061004361006e565b6040516100509190610392565b60405180910390f35b61006c610067366004610484565b610214565b005b60606000805480602002602001604051908101604052809291908181526020016000905b8282101561020b57838290600052602060002090600402016040518060800160405290816000820180546100c5906104f5565b80601f01602080910402602001604051908101604052809291908181526020018280546100f1906104f5565b801561013e5780601f106101135761010080835404028352916020019161013e565b820191906000526020600020905b81548152906001019060200180831161012157829003601f168201915b50505050508152602001600182018054610157906104f5565b80601f0160208091040260200160405190810160405280929190818152602001828054610183906104f5565b80156101d05780601f106101a5576101008083540402835291602001916101d0565b820191906000526020600020905b8154815290600101906020018083116101b357829003601f168201915b505050918352505060028201546020808301919091526003909201546001600160a01b03166040909101529082526001929092019101610092565b50505050905090565b6001546040516001600160a01b03909116903480156108fc02916000818181858888f1935050505015801561024d573d6000803e3d6000fd5b506040805160a06020601f87018190040282018101909252608081018581526000928291908890889081908501838280828437600092019190915250505090825250604080516020601f8701819004810282018101909252858152918101919086908690819084018382808284376000920182905250938552505042602080850191909152336040909401939093525083546001810185559381522081519192600402019081906102fe9082610594565b50602082015160018201906103139082610594565b5060408201516002820155606090910151600390910180546001600160a01b0319166001600160a01b0390921691909117905550505050565b6000815180845260005b8181101561037257602081850181015186830182015201610356565b506000602082860101526020601f19601f83011685010191505092915050565b6000602082016020835280845180835260408501915060408160051b86010192506020860160005b8281101561042f57603f1987860301845281518051608087526103e0608088018261034c565b9050602082015187820360208901526103f9828261034c565b604084810151908a01526060938401516001600160a01b03169390980192909252505060209384019391909101906001016103ba565b50929695505050505050565b60008083601f84011261044d57600080fd5b50813567ffffffffffffffff81111561046557600080fd5b60208301915083602082850101111561047d57600080fd5b9250929050565b6000806000806040858703121561049a57600080fd5b843567ffffffffffffffff8111156104b157600080fd5b6104bd8782880161043b565b909550935050602085013567ffffffffffffffff8111156104dd57600080fd5b6104e98782880161043b565b95989497509550505050565b600181811c9082168061050957607f821691505b60208210810361052957634e487b7160e01b600052602260045260246000fd5b50919050565b634e487b7160e01b600052604160045260246000fd5b601f82111561058f57806000526020600020601f840160051c8101602085101561056c5750805b601f840160051c820191505b8181101561058c5760008155600101610578565b50505b505050565b815167ffffffffffffffff8111156105ae576105ae61052f565b6105c2816105bc84546104f5565b84610545565b6020601f8211600181146105f657600083156105de5750848201515b600019600385901b1c1916600184901b17845561058c565b600084815260208120601f198516915b828110156106265787850151825560209485019460019092019101610606565b50848210156106445786840151600019600387901b60f8161c191681555b50505050600190811b0190555056fea2646970667358221220080ffa79dd62a30f664f808f61072dee16420a8f5a0ee0ec077582c67c08a0e064736f6c634300081c0033","linkReferences":{}},"methodIdentifiers":{"buychai(string,string)":"97aeeef7","getMemos()":"865c5172"},"id":20}